{
  "_format": "hh-sol-artifact-1",
  "contractName": "CR7_Token",
  "sourceName": "contracts/CR7_Token.sol",
  "abi": [
    {
      "inputs": [],
      "stateMutability": "nonpayable",
      "type": "constructor"
    },
    {
      "inputs": [
        {
          "internalType": "uint256",
          "name": "_amount",
          "type": "uint256"
        }
      ],
      "name": "BurnCR7Tokens",
      "outputs": [],
      "stateMutability": "nonpayable",
      "type": "function"
    },
    {
      "inputs": [
        {
          "internalType": "uint256",
          "name": "_amount",
          "type": "uint256"
        }
      ],
      "name": "MintCR7Tokens",
      "outputs": [],
      "stateMutability": "nonpayable",
      "type": "function"
    },
    {
      "inputs": [
        {
          "internalType": "address",
          "name": "_address",
          "type": "address"
        },
        {
          "internalType": "uint256",
          "name": "_amount",
          "type": "uint256"
        }
      ],
      "name": "SendCR7Tokens",
      "outputs": [],
      "stateMutability": "nonpayable",
      "type": "function"
    },
    {
      "inputs": [],
      "name": "calculateTurnover",
      "outputs": [
        {
          "internalType": "uint256",
          "name": "",
          "type": "uint256"
        }
      ],
      "stateMutability": "nonpayable",
      "type": "function"
    },
    {
      "inputs": [],
      "name": "currentCR7Supply",
      "outputs": [
        {
          "internalType": "uint256",
          "name": "",
          "type": "uint256"
        }
      ],
      "stateMutability": "view",
      "type": "function"
    },
    {
      "inputs": [],
      "name": "getCR7Balance",
      "outputs": [
        {
          "internalType": "uint256",
          "name": "",
          "type": "uint256"
        }
      ],
      "stateMutability": "view",
      "type": "function"
    },
    {
      "inputs": [],
      "name": "tokenName",
      "outputs": [
        {
          "internalType": "string",
          "name": "",
          "type": "string"
        }
      ],
      "stateMutability": "view",
      "type": "function"
    },
    {
      "inputs": [],
      "name": "tokenSymbol",
      "outputs": [
        {
          "internalType": "string",
          "name": "",
          "type": "string"
        }
      ],
      "stateMutability": "view",
      "type": "function"
    },
    {
      "inputs": [],
      "name": "tokenowner",
      "outputs": [
        {
          "internalType": "address",
          "name": "",
          "type": "address"
        }
      ],
      "stateMutability": "view",
      "type": "function"
    },
    {
      "inputs": [],
      "name": "totalBurnedCR7",
      "outputs": [
        {
          "internalType": "uint256",
          "name": "",
          "type": "uint256"
        }
      ],
      "stateMutability": "view",
      "type": "function"
    },
    {
      "inputs": [],
      "name": "totalMintedCR7",
      "outputs": [
        {
          "internalType": "uint256",
          "name": "",
          "type": "uint256"
        }
      ],
      "stateMutability": "view",
      "type": "function"
    },
    {
      "inputs": [],
      "name": "total_CR7_Turnover",
      "outputs": [
        {
          "internalType": "uint256",
          "name": "",
          "type": "uint256"
        }
      ],
      "stateMutability": "view",
      "type": "function"
    }
  ],
  "bytecode": "0x60806040526040518060400160405280601181526020017f437269737469616e6f20526f6e616c646f000000000000000000000000000000815250600090816200004a919062000375565b506040518060400160405280600381526020017f43523700000000000000000000000000000000000000000000000000000000008152506001908162000091919062000375565b506000600255600060035560006004556000600555348015620000b357600080fd5b5033600660006101000a81548173ffffffffffffffffffffffffffffffffffffffff021916908373ffffffffffffffffffffffffffffffffffffffff1602179055506200045c565b600081519050919050565b7f4e487b7100000000000000000000000000000000000000000000000000000000600052604160045260246000fd5b7f4e487b7100000000000000000000000000000000000000000000000000000000600052602260045260246000fd5b600060028204905060018216806200017d57607f821691505b60208210810362000193576200019262000135565b5b50919050565b60008190508160005260206000209050919050565b60006020601f8301049050919050565b600082821b905092915050565b600060088302620001fd7fffffffffffffffffffffffffffffffffffffffffffffffffffffffffffffffff82620001be565b620002098683620001be565b95508019841693508086168417925050509392505050565b6000819050919050565b6000819050919050565b600062000256620002506200024a8462000221565b6200022b565b62000221565b9050919050565b6000819050919050565b620002728362000235565b6200028a62000281826200025d565b848454620001cb565b825550505050565b600090565b620002a162000292565b620002ae81848462000267565b505050565b5b81811015620002d657620002ca60008262000297565b600181019050620002b4565b5050565b601f8211156200032557620002ef8162000199565b620002fa84620001ae565b810160208510156200030a578190505b620003226200031985620001ae565b830182620002b3565b50505b505050565b600082821c905092915050565b60006200034a600019846008026200032a565b1980831691505092915050565b600062000365838362000337565b9150826002028217905092915050565b6200038082620000fb565b67ffffffffffffffff8111156200039c576200039b62000106565b5b620003a8825462000164565b620003b5828285620002da565b600060209050601f831160018114620003ed5760008415620003d8578287015190505b620003e4858262000357565b86555062000454565b601f198416620003fd8662000199565b60005b82811015620004275784890151825560018201915060208501945060208101905062000400565b8683101562000447578489015162000443601f89168262000337565b8355505b6001600288020188555050505b505050505050565b610b97806200046c6000396000f3fe608060405234801561001057600080fd5b50600436106100b45760003560e01c80639f38efac116100715780639f38efac1461016b578063a5cf346414610189578063af0e3de7146101a5578063d385c821146101c3578063f3779c2c146101e1578063fcbaf40f146101fd576100b4565b806306ee91be146100b95780636c02a931146100d75780637b61c320146100f55780638044d79314610113578063829a7d8614610131578063978699631461014d575b600080fd5b6100c161021b565b6040516100ce919061072d565b60405180910390f35b6100df61023b565b6040516100ec91906107d8565b60405180910390f35b6100fd6102c9565b60405161010a91906107d8565b60405180910390f35b61011b610357565b604051610128919061083b565b60405180910390f35b61014b60048036038101906101469190610887565b61037d565b005b61015561044f565b604051610162919061072d565b60405180910390f35b610173610455565b604051610180919061072d565b60405180910390f35b6101a3600480360381019061019e9190610887565b61045b565b005b6101ad610576565b6040516101ba919061072d565b60405180910390f35b6101cb6105bd565b6040516101d8919061072d565b60405180910390f35b6101fb60048036038101906101f691906108e0565b6105c3565b005b61020561070e565b604051610212919061072d565b60405180910390f35b600060035460045461022d919061094f565b600581905550600554905090565b60008054610248906109b2565b80601f0160208091040260200160405190810160405280929190818152602001828054610274906109b2565b80156102c15780601f10610296576101008083540402835291602001916102c1565b820191906000526020600020905b8154815290600101906020018083116102a457829003601f168201915b505050505081565b600180546102d6906109b2565b80601f0160208091040260200160405190810160405280929190818152602001828054610302906109b2565b801561034f5780601f106103245761010080835404028352916020019161034f565b820191906000526020600020905b81548152906001019060200180831161033257829003601f168201915b505050505081565b600660009054906101000a900473ffffffffffffffffffffffffffffffffffffffff1681565b80600760003373ffffffffffffffffffffffffffffffffffffffff1673ffffffffffffffffffffffffffffffffffffffff168152602001908152602001600020541061044c5780600760003373ffffffffffffffffffffffffffffffffffffffff1673ffffffffffffffffffffffffffffffffffffffff168152602001908152602001600020600082825461041291906109e3565b92505081905550806002600082825461042b91906109e3565b925050819055508060046000828254610444919061094f565b925050819055505b50565b60025481565b60055481565b600660009054906101000a900473ffffffffffffffffffffffffffffffffffffffff1673ffffffffffffffffffffffffffffffffffffffff163373ffffffffffffffffffffffffffffffffffffffff16146104eb576040517f08c379a00000000000000000000000000000000000000000000000000000000081526004016104e290610a89565b60405180910390fd5b80600760003373ffffffffffffffffffffffffffffffffffffffff1673ffffffffffffffffffffffffffffffffffffffff168152602001908152602001600020600082825461053a919061094f565b925050819055508060026000828254610553919061094f565b92505081905550806003600082825461056c919061094f565b9250508190555050565b6000600760003373ffffffffffffffffffffffffffffffffffffffff1673ffffffffffffffffffffffffffffffffffffffff16815260200190815260200160002054905090565b60035481565b80600760003373ffffffffffffffffffffffffffffffffffffffff1673ffffffffffffffffffffffffffffffffffffffff168152602001908152602001600020541015610645576040517f08c379a000000000000000000000000000000000000000000000000000000000815260040161063c90610b41565b60405180910390fd5b80600760008473ffffffffffffffffffffffffffffffffffffffff1673ffffffffffffffffffffffffffffffffffffffff1681526020019081526020016000206000828254610694919061094f565b9250508190555080600760003373ffffffffffffffffffffffffffffffffffffffff1673ffffffffffffffffffffffffffffffffffffffff16815260200190815260200160002060008282546106ea91906109e3565b92505081905550806002600082825461070391906109e3565b925050819055505050565b60045481565b6000819050919050565b61072781610714565b82525050565b6000602082019050610742600083018461071e565b92915050565b600081519050919050565b600082825260208201905092915050565b60005b83811015610782578082015181840152602081019050610767565b60008484015250505050565b6000601f19601f8301169050919050565b60006107aa82610748565b6107b48185610753565b93506107c4818560208601610764565b6107cd8161078e565b840191505092915050565b600060208201905081810360008301526107f2818461079f565b905092915050565b600073ffffffffffffffffffffffffffffffffffffffff82169050919050565b6000610825826107fa565b9050919050565b6108358161081a565b82525050565b6000602082019050610850600083018461082c565b92915050565b600080fd5b61086481610714565b811461086f57600080fd5b50565b6000813590506108818161085b565b92915050565b60006020828403121561089d5761089c610856565b5b60006108ab84828501610872565b91505092915050565b6108bd8161081a565b81146108c857600080fd5b50565b6000813590506108da816108b4565b92915050565b600080604083850312156108f7576108f6610856565b5b6000610905858286016108cb565b925050602061091685828601610872565b9150509250929050565b7f4e487b7100000000000000000000000000000000000000000000000000000000600052601160045260246000fd5b600061095a82610714565b915061096583610714565b925082820190508082111561097d5761097c610920565b5b92915050565b7f4e487b7100000000000000000000000000000000000000000000000000000000600052602260045260246000fd5b600060028204905060018216806109ca57607f821691505b6020821081036109dd576109dc610983565b5b50919050565b60006109ee82610714565b91506109f983610714565b9250828203905081811115610a1157610a10610920565b5b92915050565b7f596f7520646f206e6f742068617665207468652072657175697265642070657260008201527f6d697373696f6e7320746f206d696e7420746f6b656e73000000000000000000602082015250565b6000610a73603783610753565b9150610a7e82610a17565b604082019050919050565b60006020820190508181036000830152610aa281610a66565b9050919050565b7f496e73756666696369656e742066756e647320696e20746865206163636f756e60008201527f742c20756e61626c6520746f2070726f6365656420776974682074686520747260208201527f616e736665722e00000000000000000000000000000000000000000000000000604082015250565b6000610b2b604783610753565b9150610b3682610aa9565b606082019050919050565b60006020820190508181036000830152610b5a81610b1e565b905091905056fea2646970667358221220c47e719903ba4570acd035be3d588561cb7d1278055c1adffab7b8fd6d0c86ec64736f6c63430008120033",
  "linkReferences": {},
  "deployedLinkReferences": {}
}